{
  "contractName": "Crossbnb",
  "abi": [
    {
      "inputs": [],
      "name": "offerCount",
      "outputs": [
        {
          "internalType": "uint256",
          "name": "",
          "type": "uint256"
        }
      ],
      "stateMutability": "view",
      "type": "function"
    },
    {
      "inputs": [
        {
          "internalType": "uint256",
          "name": "",
          "type": "uint256"
        }
      ],
      "name": "offers",
      "outputs": [
        {
          "internalType": "uint256",
          "name": "id",
          "type": "uint256"
        },
        {
          "internalType": "address",
          "name": "owner",
          "type": "address"
        },
        {
          "internalType": "uint256",
          "name": "tokenId",
          "type": "uint256"
        },
        {
          "internalType": "uint256",
          "name": "price",
          "type": "uint256"
        },
        {
          "internalType": "string",
          "name": "paymentToken",
          "type": "string"
        },
        {
          "internalType": "string",
          "name": "state",
          "type": "string"
        },
        {
          "internalType": "uint256",
          "name": "occupiedOfferFrom",
          "type": "uint256"
        },
        {
          "internalType": "uint256",
          "name": "occupiedOfferTo",
          "type": "uint256"
        },
        {
          "internalType": "address",
          "name": "occupiedOfferByUser",
          "type": "address"
        }
      ],
      "stateMutability": "view",
      "type": "function"
    },
    {
      "inputs": [
        {
          "internalType": "uint256",
          "name": "tokenId",
          "type": "uint256"
        },
        {
          "internalType": "uint256",
          "name": "price",
          "type": "uint256"
        },
        {
          "internalType": "string",
          "name": "paymentToken",
          "type": "string"
        }
      ],
      "name": "createOffer",
      "outputs": [],
      "stateMutability": "nonpayable",
      "type": "function"
    },
    {
      "inputs": [
        {
          "internalType": "uint256",
          "name": "id",
          "type": "uint256"
        }
      ],
      "name": "getOffer",
      "outputs": [
        {
          "components": [
            {
              "internalType": "uint256",
              "name": "id",
              "type": "uint256"
            },
            {
              "internalType": "address",
              "name": "owner",
              "type": "address"
            },
            {
              "internalType": "uint256",
              "name": "tokenId",
              "type": "uint256"
            },
            {
              "internalType": "uint256",
              "name": "price",
              "type": "uint256"
            },
            {
              "internalType": "string",
              "name": "paymentToken",
              "type": "string"
            },
            {
              "internalType": "string",
              "name": "state",
              "type": "string"
            },
            {
              "internalType": "uint256",
              "name": "occupiedOfferFrom",
              "type": "uint256"
            },
            {
              "internalType": "uint256",
              "name": "occupiedOfferTo",
              "type": "uint256"
            },
            {
              "internalType": "address",
              "name": "occupiedOfferByUser",
              "type": "address"
            }
          ],
          "internalType": "struct Crossbnb.Offer",
          "name": "",
          "type": "tuple"
        }
      ],
      "stateMutability": "view",
      "type": "function"
    },
    {
      "inputs": [],
      "name": "getAllOffers",
      "outputs": [
        {
          "components": [
            {
              "internalType": "uint256",
              "name": "id",
              "type": "uint256"
            },
            {
              "internalType": "address",
              "name": "owner",
              "type": "address"
            },
            {
              "internalType": "uint256",
              "name": "tokenId",
              "type": "uint256"
            },
            {
              "internalType": "uint256",
              "name": "price",
              "type": "uint256"
            },
            {
              "internalType": "string",
              "name": "paymentToken",
              "type": "string"
            },
            {
              "internalType": "string",
              "name": "state",
              "type": "string"
            },
            {
              "internalType": "uint256",
              "name": "occupiedOfferFrom",
              "type": "uint256"
            },
            {
              "internalType": "uint256",
              "name": "occupiedOfferTo",
              "type": "uint256"
            },
            {
              "internalType": "address",
              "name": "occupiedOfferByUser",
              "type": "address"
            }
          ],
          "internalType": "struct Crossbnb.Offer[]",
          "name": "",
          "type": "tuple[]"
        }
      ],
      "stateMutability": "view",
      "type": "function"
    },
    {
      "inputs": [],
      "name": "getAllActiveOffers",
      "outputs": [
        {
          "components": [
            {
              "internalType": "uint256",
              "name": "id",
              "type": "uint256"
            },
            {
              "internalType": "address",
              "name": "owner",
              "type": "address"
            },
            {
              "internalType": "uint256",
              "name": "tokenId",
              "type": "uint256"
            },
            {
              "internalType": "uint256",
              "name": "price",
              "type": "uint256"
            },
            {
              "internalType": "string",
              "name": "paymentToken",
              "type": "string"
            },
            {
              "internalType": "string",
              "name": "state",
              "type": "string"
            },
            {
              "internalType": "uint256",
              "name": "occupiedOfferFrom",
              "type": "uint256"
            },
            {
              "internalType": "uint256",
              "name": "occupiedOfferTo",
              "type": "uint256"
            },
            {
              "internalType": "address",
              "name": "occupiedOfferByUser",
              "type": "address"
            }
          ],
          "internalType": "struct Crossbnb.Offer[]",
          "name": "",
          "type": "tuple[]"
        }
      ],
      "stateMutability": "view",
      "type": "function"
    },
    {
      "inputs": [
        {
          "internalType": "uint256",
          "name": "id",
          "type": "uint256"
        }
      ],
      "name": "deleteStruct",
      "outputs": [],
      "stateMutability": "nonpayable",
      "type": "function"
    },
    {
      "inputs": [
        {
          "internalType": "uint256",
          "name": "id",
          "type": "uint256"
        }
      ],
      "name": "changeOfferToPaid",
      "outputs": [],
      "stateMutability": "nonpayable",
      "type": "function"
    },
    {
      "inputs": [
        {
          "internalType": "uint256",
          "name": "id",
          "type": "uint256"
        },
        {
          "internalType": "uint256",
          "name": "occupiedOfferFrom",
          "type": "uint256"
        },
        {
          "internalType": "uint256",
          "name": "occupiedOfferTo",
          "type": "uint256"
        },
        {
          "internalType": "address",
          "name": "occupiedOfferByUser",
          "type": "address"
        }
      ],
      "name": "changeOfferToOccupied",
      "outputs": [],
      "stateMutability": "nonpayable",
      "type": "function"
    }
  ],
  "bytecode": "0x6080604052600060015534801561001557600080fd5b50611ec3806100256000396000f3fe608060405234801561001057600080fd5b50600436106100925760003560e01c80635aeee8cb116100665780635aeee8cb1461011f5780638a72ea6a1461013b5780638eea9c4914610173578063a16552781461018f578063b05e8ca5146101ad57610092565b80623beca0146100975780631115c24d146100b55780632a90acb2146100d35780634579268a146100ef575b600080fd5b61009f6101c9565b6040516100ac91906118fb565b60405180910390f35b6100bd610491565b6040516100ca919061192c565b60405180910390f35b6100ed60048036038101906100e8919061197d565b610497565b005b6101096004803603810190610104919061197d565b610507565b6040516101169190611a76565b60405180910390f35b61013960048036038101906101349190611afd565b610744565b005b6101556004803603810190610150919061197d565b610977565b60405161016a99989796959493929190611bca565b60405180910390f35b61018d6004803603810190610188919061197d565b610b15565b005b6101976110cf565b6040516101a491906118fb565b60405180910390f35b6101c760048036038101906101c29190611c91565b611397565b005b6060600060015467ffffffffffffffff8111156101e9576101e8611cf8565b5b60405190808252806020026020018201604052801561022257816020015b61020f611492565b8152602001906001900390816102075790505b50905060005b60015481101561048957600080600083815260200190815260200160002090508060405180610120016040529081600082015481526020016001820160009054906101000a900473ffffffffffffffffffffffffffffffffffffffff1673ffffffffffffffffffffffffffffffffffffffff1673ffffffffffffffffffffffffffffffffffffffff16815260200160028201548152602001600382015481526020016004820180546102d990611d56565b80601f016020809104026020016040519081016040528092919081815260200182805461030590611d56565b80156103525780601f1061032757610100808354040283529160200191610352565b820191906000526020600020905b81548152906001019060200180831161033557829003601f168201915b5050505050815260200160058201805461036b90611d56565b80601f016020809104026020016040519081016040528092919081815260200182805461039790611d56565b80156103e45780601f106103b9576101008083540402835291602001916103e4565b820191906000526020600020905b8154815290600101906020018083116103c757829003601f168201915b5050505050815260200160068201548152602001600782015481526020016008820160009054906101000a900473ffffffffffffffffffffffffffffffffffffffff1673ffffffffffffffffffffffffffffffffffffffff1673ffffffffffffffffffffffffffffffffffffffff168152505083838151811061046a57610469611d88565b5b602002602001018190525050808061048190611de6565b915050610228565b508091505090565b60015481565b60015481106104a557600080fd5b6040518060400160405280600481526020017f7061696400000000000000000000000000000000000000000000000000000000815250600080838152602001908152602001600020600501908051906020019061050392919061150a565b5050565b61050f611492565b600154821061051d57600080fd5b60008083815260200190815260200160002060405180610120016040529081600082015481526020016001820160009054906101000a900473ffffffffffffffffffffffffffffffffffffffff1673ffffffffffffffffffffffffffffffffffffffff1673ffffffffffffffffffffffffffffffffffffffff16815260200160028201548152602001600382015481526020016004820180546105bf90611d56565b80601f01602080910402602001604051908101604052809291908181526020018280546105eb90611d56565b80156106385780601f1061060d57610100808354040283529160200191610638565b820191906000526020600020905b81548152906001019060200180831161061b57829003601f168201915b5050505050815260200160058201805461065190611d56565b80601f016020809104026020016040519081016040528092919081815260200182805461067d90611d56565b80156106ca5780601f1061069f576101008083540402835291602001916106ca565b820191906000526020600020905b8154815290600101906020018083116106ad57829003601f168201915b5050505050815260200160068201548152602001600782015481526020016008820160009054906101000a900473ffffffffffffffffffffffffffffffffffffffff1673ffffffffffffffffffffffffffffffffffffffff1673ffffffffffffffffffffffffffffffffffffffff16815250509050919050565b6000841161075157600080fd5b6000831161075e57600080fd5b60405180610120016040528060015481526020013373ffffffffffffffffffffffffffffffffffffffff16815260200185815260200184815260200183838080601f016020809104026020016040519081016040528093929190818152602001838380828437600081840152601f19601f8201169050808301925050505050505081526020016040518060400160405280600781526020017f6372656174656400000000000000000000000000000000000000000000000000815250815260200160008152602001600081526020013373ffffffffffffffffffffffffffffffffffffffff1681525060008060015481526020019081526020016000206000820151816000015560208201518160010160006101000a81548173ffffffffffffffffffffffffffffffffffffffff021916908373ffffffffffffffffffffffffffffffffffffffff160217905550604082015181600201556060820151816003015560808201518160040190805190602001906108dc92919061150a565b5060a08201518160050190805190602001906108f992919061150a565b5060c0820151816006015560e082015181600701556101008201518160080160006101000a81548173ffffffffffffffffffffffffffffffffffffffff021916908373ffffffffffffffffffffffffffffffffffffffff1602179055509050506001600081548092919061096c90611de6565b919050555050505050565b60006020528060005260406000206000915090508060000154908060010160009054906101000a900473ffffffffffffffffffffffffffffffffffffffff16908060020154908060030154908060040180546109d290611d56565b80601f01602080910402602001604051908101604052809291908181526020018280546109fe90611d56565b8015610a4b5780601f10610a2057610100808354040283529160200191610a4b565b820191906000526020600020905b815481529060010190602001808311610a2e57829003601f168201915b505050505090806005018054610a6090611d56565b80601f0160208091040260200160405190810160405280929190818152602001828054610a8c90611d56565b8015610ad95780601f10610aae57610100808354040283529160200191610ad9565b820191906000526020600020905b815481529060010190602001808311610abc57829003601f168201915b5050505050908060060154908060070154908060080160009054906101000a900473ffffffffffffffffffffffffffffffffffffffff16905089565b610b1d611492565b60005b600154811015610ffa5782811415610fe75760008082815260200190815260200160002060405180610120016040529081600082015481526020016001820160009054906101000a900473ffffffffffffffffffffffffffffffffffffffff1673ffffffffffffffffffffffffffffffffffffffff1673ffffffffffffffffffffffffffffffffffffffff1681526020016002820154815260200160038201548152602001600482018054610bd490611d56565b80601f0160208091040260200160405190810160405280929190818152602001828054610c0090611d56565b8015610c4d5780601f10610c2257610100808354040283529160200191610c4d565b820191906000526020600020905b815481529060010190602001808311610c3057829003601f168201915b50505050508152602001600582018054610c6690611d56565b80601f0160208091040260200160405190810160405280929190818152602001828054610c9290611d56565b8015610cdf5780601f10610cb457610100808354040283529160200191610cdf565b820191906000526020600020905b815481529060010190602001808311610cc257829003601f168201915b5050505050815260200160068201548152602001600782015481526020016008820160009054906101000a900473ffffffffffffffffffffffffffffffffffffffff1673ffffffffffffffffffffffffffffffffffffffff1673ffffffffffffffffffffffffffffffffffffffff1681525050915060008060018054610d659190611e2f565b8152602001908152602001600020600080838152602001908152602001600020600082015481600001556001820160009054906101000a900473ffffffffffffffffffffffffffffffffffffffff168160010160006101000a81548173ffffffffffffffffffffffffffffffffffffffff021916908373ffffffffffffffffffffffffffffffffffffffff16021790555060028201548160020155600382015481600301556004820181600401908054610e1e90611d56565b610e29929190611590565b506005820181600501908054610e3e90611d56565b610e49929190611590565b5060068201548160060155600782015481600701556008820160009054906101000a900473ffffffffffffffffffffffffffffffffffffffff168160080160006101000a81548173ffffffffffffffffffffffffffffffffffffffff021916908373ffffffffffffffffffffffffffffffffffffffff1602179055509050508160008060018054610eda9190611e2f565b81526020019081526020016000206000820151816000015560208201518160010160006101000a81548173ffffffffffffffffffffffffffffffffffffffff021916908373ffffffffffffffffffffffffffffffffffffffff16021790555060408201518160020155606082015181600301556080820151816004019080519060200190610f6992919061150a565b5060a0820151816005019080519060200190610f8692919061150a565b5060c0820151816006015560e082015181600701556101008201518160080160006101000a81548173ffffffffffffffffffffffffffffffffffffffff021916908373ffffffffffffffffffffffffffffffffffffffff1602179055509050505b8080610ff290611de6565b915050610b20565b506000806001805461100c9190611e2f565b81526020019081526020016000206000808201600090556001820160006101000a81549073ffffffffffffffffffffffffffffffffffffffff02191690556002820160009055600382016000905560048201600061106a919061161d565b60058201600061107a919061161d565b600682016000905560078201600090556008820160006101000a81549073ffffffffffffffffffffffffffffffffffffffff02191690555050600160008154809291906110c690611e63565b91905055505050565b6060600060015467ffffffffffffffff8111156110ef576110ee611cf8565b5b60405190808252806020026020018201604052801561112857816020015b611115611492565b81526020019060019003908161110d5790505b50905060005b60015481101561138f57600080600083815260200190815260200160002090508060405180610120016040529081600082015481526020016001820160009054906101000a900473ffffffffffffffffffffffffffffffffffffffff1673ffffffffffffffffffffffffffffffffffffffff1673ffffffffffffffffffffffffffffffffffffffff16815260200160028201548152602001600382015481526020016004820180546111df90611d56565b80601f016020809104026020016040519081016040528092919081815260200182805461120b90611d56565b80156112585780601f1061122d57610100808354040283529160200191611258565b820191906000526020600020905b81548152906001019060200180831161123b57829003601f168201915b5050505050815260200160058201805461127190611d56565b80601f016020809104026020016040519081016040528092919081815260200182805461129d90611d56565b80156112ea5780601f106112bf576101008083540402835291602001916112ea565b820191906000526020600020905b8154815290600101906020018083116112cd57829003601f168201915b5050505050815260200160068201548152602001600782015481526020016008820160009054906101000a900473ffffffffffffffffffffffffffffffffffffffff1673ffffffffffffffffffffffffffffffffffffffff1673ffffffffffffffffffffffffffffffffffffffff16815250508383815181106113705761136f611d88565b5b602002602001018190525050808061138790611de6565b91505061112e565b508091505090565b60015484106113a557600080fd5b6040518060400160405280600881526020017f6f63637570696564000000000000000000000000000000000000000000000000815250600080868152602001908152602001600020600501908051906020019061140392919061150a565b50826000808681526020019081526020016000206006018190555081600080868152602001908152602001600020600701819055508060008086815260200190815260200160002060080160006101000a81548173ffffffffffffffffffffffffffffffffffffffff021916908373ffffffffffffffffffffffffffffffffffffffff16021790555050505050565b60405180610120016040528060008152602001600073ffffffffffffffffffffffffffffffffffffffff168152602001600081526020016000815260200160608152602001606081526020016000815260200160008152602001600073ffffffffffffffffffffffffffffffffffffffff1681525090565b82805461151690611d56565b90600052602060002090601f016020900481019282611538576000855561157f565b82601f1061155157805160ff191683800117855561157f565b8280016001018555821561157f579182015b8281111561157e578251825591602001919060010190611563565b5b50905061158c919061165d565b5090565b82805461159c90611d56565b90600052602060002090601f0160209004810192826115be576000855561160c565b82601f106115cf578054855561160c565b8280016001018555821561160c57600052602060002091601f016020900482015b8281111561160b5782548255916001019190600101906115f0565b5b509050611619919061165d565b5090565b50805461162990611d56565b6000825580601f1061163b575061165a565b601f016020900490600052602060002090810190611659919061165d565b5b50565b5b8082111561167657600081600090555060010161165e565b5090565b600081519050919050565b600082825260208201905092915050565b6000819050602082019050919050565b6000819050919050565b6116b9816116a6565b82525050565b600073ffffffffffffffffffffffffffffffffffffffff82169050919050565b60006116ea826116bf565b9050919050565b6116fa816116df565b82525050565b600081519050919050565b600082825260208201905092915050565b60005b8381101561173a57808201518184015260208101905061171f565b83811115611749576000848401525b50505050565b6000601f19601f8301169050919050565b600061176b82611700565b611775818561170b565b935061178581856020860161171c565b61178e8161174f565b840191505092915050565b6000610120830160008301516117b260008601826116b0565b5060208301516117c560208601826116f1565b5060408301516117d860408601826116b0565b5060608301516117eb60608601826116b0565b50608083015184820360808601526118038282611760565b91505060a083015184820360a086015261181d8282611760565b91505060c083015161183260c08601826116b0565b5060e083015161184560e08601826116b0565b5061010083015161185a6101008601826116f1565b508091505092915050565b60006118718383611799565b905092915050565b6000602082019050919050565b60006118918261167a565b61189b8185611685565b9350836020820285016118ad85611696565b8060005b858110156118e957848403895281516118ca8582611865565b94506118d583611879565b925060208a019950506001810190506118b1565b50829750879550505050505092915050565b600060208201905081810360008301526119158184611886565b905092915050565b611926816116a6565b82525050565b6000602082019050611941600083018461191d565b92915050565b600080fd5b600080fd5b61195a816116a6565b811461196557600080fd5b50565b60008135905061197781611951565b92915050565b60006020828403121561199357611992611947565b5b60006119a184828501611968565b91505092915050565b6000610120830160008301516119c360008601826116b0565b5060208301516119d660208601826116f1565b5060408301516119e960408601826116b0565b5060608301516119fc60608601826116b0565b5060808301518482036080860152611a148282611760565b91505060a083015184820360a0860152611a2e8282611760565b91505060c0830151611a4360c08601826116b0565b5060e0830151611a5660e08601826116b0565b50610100830151611a6b6101008601826116f1565b508091505092915050565b60006020820190508181036000830152611a9081846119aa565b905092915050565b600080fd5b600080fd5b600080fd5b60008083601f840112611abd57611abc611a98565b5b8235905067ffffffffffffffff811115611ada57611ad9611a9d565b5b602083019150836001820283011115611af657611af5611aa2565b5b9250929050565b60008060008060608587031215611b1757611b16611947565b5b6000611b2587828801611968565b9450506020611b3687828801611968565b935050604085013567ffffffffffffffff811115611b5757611b5661194c565b5b611b6387828801611aa7565b925092505092959194509250565b611b7a816116df565b82525050565b600082825260208201905092915050565b6000611b9c82611700565b611ba68185611b80565b9350611bb681856020860161171c565b611bbf8161174f565b840191505092915050565b600061012082019050611be0600083018c61191d565b611bed602083018b611b71565b611bfa604083018a61191d565b611c07606083018961191d565b8181036080830152611c198188611b91565b905081810360a0830152611c2d8187611b91565b9050611c3c60c083018661191d565b611c4960e083018561191d565b611c57610100830184611b71565b9a9950505050505050505050565b611c6e816116df565b8114611c7957600080fd5b50565b600081359050611c8b81611c65565b92915050565b60008060008060808587031215611cab57611caa611947565b5b6000611cb987828801611968565b9450506020611cca87828801611968565b9350506040611cdb87828801611968565b9250506060611cec87828801611c7c565b91505092959194509250565b7f4e487b7100000000000000000000000000000000000000000000000000000000600052604160045260246000fd5b7f4e487b7100000000000000000000000000000000000000000000000000000000600052602260045260246000fd5b60006002820490506001821680611d6e57607f821691505b60208210811415611d8257611d81611d27565b5b50919050565b7f4e487b7100000000000000000000000000000000000000000000000000000000600052603260045260246000fd5b7f4e487b7100000000000000000000000000000000000000000000000000000000600052601160045260246000fd5b6000611df1826116a6565b91507fffffffffffffffffffffffffffffffffffffffffffffffffffffffffffffffff821415611e2457611e23611db7565b5b600182019050919050565b6000611e3a826116a6565b9150611e45836116a6565b925082821015611e5857611e57611db7565b5b828203905092915050565b6000611e6e826116a6565b91506000821415611e8257611e81611db7565b5b60018203905091905056fea264697066735822122065bf423b9d7eb59a58b8be5b4e5e35bede13f26f96116a00a1f953ff714dffa664736f6c634300080b0033",
  "immutableReferences": {},
  "source": "// SPDX-License-Identifier: MIT\npragma solidity >=0.4.22 <0.9.0;\n\ncontract Crossbnb {\n\n  struct Offer { \n    uint id;\n    address owner;\n    uint tokenId;\n    uint price;\n    string paymentToken;\n    string state;\n    uint256 occupiedOfferFrom;\n    uint256 occupiedOfferTo;\n    address occupiedOfferByUser;\n  }\n\n  mapping (uint => Offer) public offers;\n  uint public offerCount = 0;\n\n\n  function createOffer(uint tokenId, uint price, string calldata paymentToken) public {\n    require(tokenId > 0);\n    require(price > 0);\n    offers[offerCount] = Offer(offerCount, msg.sender, tokenId, price, paymentToken, \"created\", 0, 0, msg.sender);\n    offerCount++;\n  }\n\n  function getOffer(uint id) public view returns(Offer memory) {\n    require(id < offerCount);\n    return offers[id];\n  }\n\n  function getAllOffers() public view returns(Offer[] memory) {\n    Offer[] memory offersIds = new Offer[](offerCount);\n    for (uint i = 0; i < offerCount; i++) {\n      Offer storage member = offers[i];\n      offersIds[i] = member;\n    }\n    return offersIds;\n  }\n\n  function getAllActiveOffers() public view returns(Offer[] memory) {\n    Offer[] memory offersIds = new Offer[](offerCount);\n    for (uint i = 0; i < offerCount; i++) {\n      Offer storage member = offers[i];\n      offersIds[i] = member;\n    }\n    return offersIds;\n  }\n\n  function deleteStruct(uint id) public {\n  Offer memory removeMe;\n\n  for (uint i = 0; i < offerCount; i++) {\n    if (i == id) {                               // if this is the struct we want to delete...\n      removeMe = offers[i];                    // save it to a variable\n      offers[i] = offers[offerCount - 1]; // overwrite it with the last struct\n      offers[offerCount - 1] = removeMe;   // overwrite the last struct with the struct we want to delete\n    }\n  }\n\n  delete offers[offerCount - 1]; // delete the last struct\n  offerCount--; // remove the last struct (which should be the one we want to delete)\n  }\n\n  function changeOfferToPaid(uint id) public {\n    require(id < offerCount);\n    offers[id].state = \"paid\";\n  }\n\n  function changeOfferToOccupied(uint id, uint256 occupiedOfferFrom, uint256 occupiedOfferTo, address occupiedOfferByUser) public {\n    require(id < offerCount);\n    offers[id].state = \"occupied\";\n    offers[id].occupiedOfferFrom = occupiedOfferFrom;\n    offers[id].occupiedOfferTo = occupiedOfferTo;\n    offers[id].occupiedOfferByUser = occupiedOfferByUser;\n  }\n\n}\n",
  "sourcePath": "/home/roman/Skola/Bakalarkos/crossbnb-smartContract/contracts/Crossbnb.sol",
  "compiler": {
    "name": "solc",
    "version": "0.8.11+commit.d7f03943.Emscripten.clang"
  },
  "schemaVersion": "3.4.5",
  "updatedAt": "2022-05-16T18:57:13.146Z",
  "devdoc": {
    "kind": "dev",
    "methods": {},
    "version": 1
  },
  "userdoc": {
    "kind": "user",
    "methods": {},
    "version": 1
  }
}