{
  "contractName": "Crossbnb",
  "abi": [
    {
      "inputs": [],
      "name": "offerCount",
      "outputs": [
        {
          "internalType": "uint256",
          "name": "",
          "type": "uint256"
        }
      ],
      "stateMutability": "view",
      "type": "function",
      "constant": true
    },
    {
      "inputs": [
        {
          "internalType": "uint256",
          "name": "",
          "type": "uint256"
        }
      ],
      "name": "offers",
      "outputs": [
        {
          "internalType": "uint256",
          "name": "id",
          "type": "uint256"
        },
        {
          "internalType": "address",
          "name": "owner",
          "type": "address"
        },
        {
          "internalType": "uint256",
          "name": "tokenId",
          "type": "uint256"
        },
        {
          "internalType": "uint256",
          "name": "price",
          "type": "uint256"
        },
        {
          "internalType": "string",
          "name": "paymentToken",
          "type": "string"
        },
        {
          "internalType": "string",
          "name": "state",
          "type": "string"
        },
        {
          "internalType": "uint256",
          "name": "occupiedOfferFrom",
          "type": "uint256"
        },
        {
          "internalType": "uint256",
          "name": "occupiedOfferTo",
          "type": "uint256"
        },
        {
          "internalType": "address",
          "name": "occupiedOfferByUser",
          "type": "address"
        },
        {
          "internalType": "string",
          "name": "adressToSendTokens",
          "type": "string"
        }
      ],
      "stateMutability": "view",
      "type": "function",
      "constant": true
    },
    {
      "inputs": [
        {
          "internalType": "uint256",
          "name": "tokenId",
          "type": "uint256"
        },
        {
          "internalType": "uint256",
          "name": "price",
          "type": "uint256"
        },
        {
          "internalType": "string",
          "name": "paymentToken",
          "type": "string"
        },
        {
          "internalType": "string",
          "name": "adressToSendTokens",
          "type": "string"
        }
      ],
      "name": "createOffer",
      "outputs": [],
      "stateMutability": "nonpayable",
      "type": "function"
    },
    {
      "inputs": [
        {
          "internalType": "uint256",
          "name": "id",
          "type": "uint256"
        }
      ],
      "name": "getOffer",
      "outputs": [
        {
          "components": [
            {
              "internalType": "uint256",
              "name": "id",
              "type": "uint256"
            },
            {
              "internalType": "address",
              "name": "owner",
              "type": "address"
            },
            {
              "internalType": "uint256",
              "name": "tokenId",
              "type": "uint256"
            },
            {
              "internalType": "uint256",
              "name": "price",
              "type": "uint256"
            },
            {
              "internalType": "string",
              "name": "paymentToken",
              "type": "string"
            },
            {
              "internalType": "string",
              "name": "state",
              "type": "string"
            },
            {
              "internalType": "uint256",
              "name": "occupiedOfferFrom",
              "type": "uint256"
            },
            {
              "internalType": "uint256",
              "name": "occupiedOfferTo",
              "type": "uint256"
            },
            {
              "internalType": "address",
              "name": "occupiedOfferByUser",
              "type": "address"
            },
            {
              "internalType": "string",
              "name": "adressToSendTokens",
              "type": "string"
            }
          ],
          "internalType": "struct Crossbnb.Offer",
          "name": "",
          "type": "tuple"
        }
      ],
      "stateMutability": "view",
      "type": "function",
      "constant": true
    },
    {
      "inputs": [],
      "name": "getAllOffers",
      "outputs": [
        {
          "components": [
            {
              "internalType": "uint256",
              "name": "id",
              "type": "uint256"
            },
            {
              "internalType": "address",
              "name": "owner",
              "type": "address"
            },
            {
              "internalType": "uint256",
              "name": "tokenId",
              "type": "uint256"
            },
            {
              "internalType": "uint256",
              "name": "price",
              "type": "uint256"
            },
            {
              "internalType": "string",
              "name": "paymentToken",
              "type": "string"
            },
            {
              "internalType": "string",
              "name": "state",
              "type": "string"
            },
            {
              "internalType": "uint256",
              "name": "occupiedOfferFrom",
              "type": "uint256"
            },
            {
              "internalType": "uint256",
              "name": "occupiedOfferTo",
              "type": "uint256"
            },
            {
              "internalType": "address",
              "name": "occupiedOfferByUser",
              "type": "address"
            },
            {
              "internalType": "string",
              "name": "adressToSendTokens",
              "type": "string"
            }
          ],
          "internalType": "struct Crossbnb.Offer[]",
          "name": "",
          "type": "tuple[]"
        }
      ],
      "stateMutability": "view",
      "type": "function",
      "constant": true
    },
    {
      "inputs": [],
      "name": "getAllActiveOffers",
      "outputs": [
        {
          "components": [
            {
              "internalType": "uint256",
              "name": "id",
              "type": "uint256"
            },
            {
              "internalType": "address",
              "name": "owner",
              "type": "address"
            },
            {
              "internalType": "uint256",
              "name": "tokenId",
              "type": "uint256"
            },
            {
              "internalType": "uint256",
              "name": "price",
              "type": "uint256"
            },
            {
              "internalType": "string",
              "name": "paymentToken",
              "type": "string"
            },
            {
              "internalType": "string",
              "name": "state",
              "type": "string"
            },
            {
              "internalType": "uint256",
              "name": "occupiedOfferFrom",
              "type": "uint256"
            },
            {
              "internalType": "uint256",
              "name": "occupiedOfferTo",
              "type": "uint256"
            },
            {
              "internalType": "address",
              "name": "occupiedOfferByUser",
              "type": "address"
            },
            {
              "internalType": "string",
              "name": "adressToSendTokens",
              "type": "string"
            }
          ],
          "internalType": "struct Crossbnb.Offer[]",
          "name": "",
          "type": "tuple[]"
        }
      ],
      "stateMutability": "view",
      "type": "function",
      "constant": true
    },
    {
      "inputs": [
        {
          "internalType": "uint256",
          "name": "id",
          "type": "uint256"
        }
      ],
      "name": "deleteStruct",
      "outputs": [],
      "stateMutability": "nonpayable",
      "type": "function"
    },
    {
      "inputs": [
        {
          "internalType": "uint256",
          "name": "id",
          "type": "uint256"
        }
      ],
      "name": "changeOfferToPaid",
      "outputs": [],
      "stateMutability": "nonpayable",
      "type": "function"
    },
    {
      "inputs": [
        {
          "internalType": "uint256",
          "name": "id",
          "type": "uint256"
        },
        {
          "internalType": "uint256",
          "name": "occupiedOfferFrom",
          "type": "uint256"
        },
        {
          "internalType": "uint256",
          "name": "occupiedOfferTo",
          "type": "uint256"
        },
        {
          "internalType": "address",
          "name": "occupiedOfferByUser",
          "type": "address"
        }
      ],
      "name": "changeOfferToOccupied",
      "outputs": [],
      "stateMutability": "nonpayable",
      "type": "function"
    }
  ],
  "bytecode": "0x6080604052600060015534801561001557600080fd5b506122da806100256000396000f3fe608060405234801561001057600080fd5b50600436106100925760003560e01c8063872f8add11610066578063872f8add1461011f5780638a72ea6a1461013b5780638eea9c4914610174578063a165527814610190578063b05e8ca5146101ae57610092565b80623beca0146100975780631115c24d146100b55780632a90acb2146100d35780634579268a146100ef575b600080fd5b61009f6101ca565b6040516100ac9190611cad565b60405180910390f35b6100bd610524565b6040516100ca9190611cde565b60405180910390f35b6100ed60048036038101906100e89190611d2f565b61052a565b005b61010960048036038101906101049190611d2f565b61059a565b6040516101169190611e44565b60405180910390f35b61013960048036038101906101349190611ecb565b610869565b005b61015560048036038101906101509190611d2f565b610b06565b60405161016b9a99989796959493929190611fcb565b60405180910390f35b61018e60048036038101906101899190611d2f565b610d32565b005b6101986113cc565b6040516101a59190611cad565b60405180910390f35b6101c860048036038101906101c391906120a8565b611726565b005b6060600060015467ffffffffffffffff8111156101ea576101e961210f565b5b60405190808252806020026020018201604052801561022357816020015b610210611821565b8152602001906001900390816102085790505b50905060005b60015481101561051c57600080600083815260200190815260200160002090508060405180610140016040529081600082015481526020016001820160009054906101000a900473ffffffffffffffffffffffffffffffffffffffff1673ffffffffffffffffffffffffffffffffffffffff1673ffffffffffffffffffffffffffffffffffffffff16815260200160028201548152602001600382015481526020016004820180546102da9061216d565b80601f01602080910402602001604051908101604052809291908181526020018280546103069061216d565b80156103535780601f1061032857610100808354040283529160200191610353565b820191906000526020600020905b81548152906001019060200180831161033657829003601f168201915b5050505050815260200160058201805461036c9061216d565b80601f01602080910402602001604051908101604052809291908181526020018280546103989061216d565b80156103e55780601f106103ba576101008083540402835291602001916103e5565b820191906000526020600020905b8154815290600101906020018083116103c857829003601f168201915b5050505050815260200160068201548152602001600782015481526020016008820160009054906101000a900473ffffffffffffffffffffffffffffffffffffffff1673ffffffffffffffffffffffffffffffffffffffff1673ffffffffffffffffffffffffffffffffffffffff1681526020016009820180546104689061216d565b80601f01602080910402602001604051908101604052809291908181526020018280546104949061216d565b80156104e15780601f106104b6576101008083540402835291602001916104e1565b820191906000526020600020905b8154815290600101906020018083116104c457829003601f168201915b5050505050815250508383815181106104fd576104fc61219f565b5b6020026020010181905250508080610514906121fd565b915050610229565b508091505090565b60015481565b600154811061053857600080fd5b6040518060400160405280600481526020017f706169640000000000000000000000000000000000000000000000000000000081525060008083815260200190815260200160002060050190805190602001906105969291906118a0565b5050565b6105a2611821565b60015482106105b057600080fd5b60008083815260200190815260200160002060405180610140016040529081600082015481526020016001820160009054906101000a900473ffffffffffffffffffffffffffffffffffffffff1673ffffffffffffffffffffffffffffffffffffffff1673ffffffffffffffffffffffffffffffffffffffff16815260200160028201548152602001600382015481526020016004820180546106529061216d565b80601f016020809104026020016040519081016040528092919081815260200182805461067e9061216d565b80156106cb5780601f106106a0576101008083540402835291602001916106cb565b820191906000526020600020905b8154815290600101906020018083116106ae57829003601f168201915b505050505081526020016005820180546106e49061216d565b80601f01602080910402602001604051908101604052809291908181526020018280546107109061216d565b801561075d5780601f106107325761010080835404028352916020019161075d565b820191906000526020600020905b81548152906001019060200180831161074057829003601f168201915b5050505050815260200160068201548152602001600782015481526020016008820160009054906101000a900473ffffffffffffffffffffffffffffffffffffffff1673ffffffffffffffffffffffffffffffffffffffff1673ffffffffffffffffffffffffffffffffffffffff1681526020016009820180546107e09061216d565b80601f016020809104026020016040519081016040528092919081815260200182805461080c9061216d565b80156108595780601f1061082e57610100808354040283529160200191610859565b820191906000526020600020905b81548152906001019060200180831161083c57829003601f168201915b5050505050815250509050919050565b6000861161087657600080fd5b6000851161088357600080fd5b60405180610140016040528060015481526020013373ffffffffffffffffffffffffffffffffffffffff16815260200187815260200186815260200185858080601f016020809104026020016040519081016040528093929190818152602001838380828437600081840152601f19601f8201169050808301925050505050505081526020016040518060400160405280600781526020017f6372656174656400000000000000000000000000000000000000000000000000815250815260200160008152602001600081526020013373ffffffffffffffffffffffffffffffffffffffff16815260200183838080601f016020809104026020016040519081016040528093929190818152602001838380828437600081840152601f19601f8201169050808301925050505050505081525060008060015481526020019081526020016000206000820151816000015560208201518160010160006101000a81548173ffffffffffffffffffffffffffffffffffffffff021916908373ffffffffffffffffffffffffffffffffffffffff16021790555060408201518160020155606082015181600301556080820151816004019080519060200190610a4b9291906118a0565b5060a0820151816005019080519060200190610a689291906118a0565b5060c0820151816006015560e082015181600701556101008201518160080160006101000a81548173ffffffffffffffffffffffffffffffffffffffff021916908373ffffffffffffffffffffffffffffffffffffffff160217905550610120820151816009019080519060200190610ae29291906118a0565b5090505060016000815480929190610af9906121fd565b9190505550505050505050565b60006020528060005260406000206000915090508060000154908060010160009054906101000a900473ffffffffffffffffffffffffffffffffffffffff1690806002015490806003015490806004018054610b619061216d565b80601f0160208091040260200160405190810160405280929190818152602001828054610b8d9061216d565b8015610bda5780601f10610baf57610100808354040283529160200191610bda565b820191906000526020600020905b815481529060010190602001808311610bbd57829003601f168201915b505050505090806005018054610bef9061216d565b80601f0160208091040260200160405190810160405280929190818152602001828054610c1b9061216d565b8015610c685780601f10610c3d57610100808354040283529160200191610c68565b820191906000526020600020905b815481529060010190602001808311610c4b57829003601f168201915b5050505050908060060154908060070154908060080160009054906101000a900473ffffffffffffffffffffffffffffffffffffffff1690806009018054610caf9061216d565b80601f0160208091040260200160405190810160405280929190818152602001828054610cdb9061216d565b8015610d285780601f10610cfd57610100808354040283529160200191610d28565b820191906000526020600020905b815481529060010190602001808311610d0b57829003601f168201915b505050505090508a565b610d3a611821565b60005b6001548110156112e757828114156112d45760008082815260200190815260200160002060405180610140016040529081600082015481526020016001820160009054906101000a900473ffffffffffffffffffffffffffffffffffffffff1673ffffffffffffffffffffffffffffffffffffffff1673ffffffffffffffffffffffffffffffffffffffff1681526020016002820154815260200160038201548152602001600482018054610df19061216d565b80601f0160208091040260200160405190810160405280929190818152602001828054610e1d9061216d565b8015610e6a5780601f10610e3f57610100808354040283529160200191610e6a565b820191906000526020600020905b815481529060010190602001808311610e4d57829003601f168201915b50505050508152602001600582018054610e839061216d565b80601f0160208091040260200160405190810160405280929190818152602001828054610eaf9061216d565b8015610efc5780601f10610ed157610100808354040283529160200191610efc565b820191906000526020600020905b815481529060010190602001808311610edf57829003601f168201915b5050505050815260200160068201548152602001600782015481526020016008820160009054906101000a900473ffffffffffffffffffffffffffffffffffffffff1673ffffffffffffffffffffffffffffffffffffffff1673ffffffffffffffffffffffffffffffffffffffff168152602001600982018054610f7f9061216d565b80601f0160208091040260200160405190810160405280929190818152602001828054610fab9061216d565b8015610ff85780601f10610fcd57610100808354040283529160200191610ff8565b820191906000526020600020905b815481529060010190602001808311610fdb57829003601f168201915b5050505050815250509150600080600180546110149190612246565b8152602001908152602001600020600080838152602001908152602001600020600082015481600001556001820160009054906101000a900473ffffffffffffffffffffffffffffffffffffffff168160010160006101000a81548173ffffffffffffffffffffffffffffffffffffffff021916908373ffffffffffffffffffffffffffffffffffffffff160217905550600282015481600201556003820154816003015560048201816004019080546110cd9061216d565b6110d8929190611926565b5060058201816005019080546110ed9061216d565b6110f8929190611926565b5060068201548160060155600782015481600701556008820160009054906101000a900473ffffffffffffffffffffffffffffffffffffffff168160080160006101000a81548173ffffffffffffffffffffffffffffffffffffffff021916908373ffffffffffffffffffffffffffffffffffffffff16021790555060098201816009019080546111889061216d565b611193929190611926565b5090505081600080600180546111a99190612246565b81526020019081526020016000206000820151816000015560208201518160010160006101000a81548173ffffffffffffffffffffffffffffffffffffffff021916908373ffffffffffffffffffffffffffffffffffffffff160217905550604082015181600201556060820151816003015560808201518160040190805190602001906112389291906118a0565b5060a08201518160050190805190602001906112559291906118a0565b5060c0820151816006015560e082015181600701556101008201518160080160006101000a81548173ffffffffffffffffffffffffffffffffffffffff021916908373ffffffffffffffffffffffffffffffffffffffff1602179055506101208201518160090190805190602001906112cf9291906118a0565b509050505b80806112df906121fd565b915050610d3d565b50600080600180546112f99190612246565b81526020019081526020016000206000808201600090556001820160006101000a81549073ffffffffffffffffffffffffffffffffffffffff02191690556002820160009055600382016000905560048201600061135791906119b3565b60058201600061136791906119b3565b600682016000905560078201600090556008820160006101000a81549073ffffffffffffffffffffffffffffffffffffffff02191690556009820160006113ae91906119b3565b5050600160008154809291906113c39061227a565b91905055505050565b6060600060015467ffffffffffffffff8111156113ec576113eb61210f565b5b60405190808252806020026020018201604052801561142557816020015b611412611821565b81526020019060019003908161140a5790505b50905060005b60015481101561171e57600080600083815260200190815260200160002090508060405180610140016040529081600082015481526020016001820160009054906101000a900473ffffffffffffffffffffffffffffffffffffffff1673ffffffffffffffffffffffffffffffffffffffff1673ffffffffffffffffffffffffffffffffffffffff16815260200160028201548152602001600382015481526020016004820180546114dc9061216d565b80601f01602080910402602001604051908101604052809291908181526020018280546115089061216d565b80156115555780601f1061152a57610100808354040283529160200191611555565b820191906000526020600020905b81548152906001019060200180831161153857829003601f168201915b5050505050815260200160058201805461156e9061216d565b80601f016020809104026020016040519081016040528092919081815260200182805461159a9061216d565b80156115e75780601f106115bc576101008083540402835291602001916115e7565b820191906000526020600020905b8154815290600101906020018083116115ca57829003601f168201915b5050505050815260200160068201548152602001600782015481526020016008820160009054906101000a900473ffffffffffffffffffffffffffffffffffffffff1673ffffffffffffffffffffffffffffffffffffffff1673ffffffffffffffffffffffffffffffffffffffff16815260200160098201805461166a9061216d565b80601f01602080910402602001604051908101604052809291908181526020018280546116969061216d565b80156116e35780601f106116b8576101008083540402835291602001916116e3565b820191906000526020600020905b8154815290600101906020018083116116c657829003601f168201915b5050505050815250508383815181106116ff576116fe61219f565b5b6020026020010181905250508080611716906121fd565b91505061142b565b508091505090565b600154841061173457600080fd5b6040518060400160405280600881526020017f6f6363757069656400000000000000000000000000000000000000000000000081525060008086815260200190815260200160002060050190805190602001906117929291906118a0565b50826000808681526020019081526020016000206006018190555081600080868152602001908152602001600020600701819055508060008086815260200190815260200160002060080160006101000a81548173ffffffffffffffffffffffffffffffffffffffff021916908373ffffffffffffffffffffffffffffffffffffffff16021790555050505050565b60405180610140016040528060008152602001600073ffffffffffffffffffffffffffffffffffffffff168152602001600081526020016000815260200160608152602001606081526020016000815260200160008152602001600073ffffffffffffffffffffffffffffffffffffffff168152602001606081525090565b8280546118ac9061216d565b90600052602060002090601f0160209004810192826118ce5760008555611915565b82601f106118e757805160ff1916838001178555611915565b82800160010185558215611915579182015b828111156119145782518255916020019190600101906118f9565b5b50905061192291906119f3565b5090565b8280546119329061216d565b90600052602060002090601f01602090048101928261195457600085556119a2565b82601f1061196557805485556119a2565b828001600101855582156119a257600052602060002091601f016020900482015b828111156119a1578254825591600101919060010190611986565b5b5090506119af91906119f3565b5090565b5080546119bf9061216d565b6000825580601f106119d157506119f0565b601f0160209004906000526020600020908101906119ef91906119f3565b5b50565b5b80821115611a0c5760008160009055506001016119f4565b5090565b600081519050919050565b600082825260208201905092915050565b6000819050602082019050919050565b6000819050919050565b611a4f81611a3c565b82525050565b600073ffffffffffffffffffffffffffffffffffffffff82169050919050565b6000611a8082611a55565b9050919050565b611a9081611a75565b82525050565b600081519050919050565b600082825260208201905092915050565b60005b83811015611ad0578082015181840152602081019050611ab5565b83811115611adf576000848401525b50505050565b6000601f19601f8301169050919050565b6000611b0182611a96565b611b0b8185611aa1565b9350611b1b818560208601611ab2565b611b2481611ae5565b840191505092915050565b600061014083016000830151611b486000860182611a46565b506020830151611b5b6020860182611a87565b506040830151611b6e6040860182611a46565b506060830151611b816060860182611a46565b5060808301518482036080860152611b998282611af6565b91505060a083015184820360a0860152611bb38282611af6565b91505060c0830151611bc860c0860182611a46565b5060e0830151611bdb60e0860182611a46565b50610100830151611bf0610100860182611a87565b50610120830151848203610120860152611c0a8282611af6565b9150508091505092915050565b6000611c238383611b2f565b905092915050565b6000602082019050919050565b6000611c4382611a10565b611c4d8185611a1b565b935083602082028501611c5f85611a2c565b8060005b85811015611c9b5784840389528151611c7c8582611c17565b9450611c8783611c2b565b925060208a01995050600181019050611c63565b50829750879550505050505092915050565b60006020820190508181036000830152611cc78184611c38565b905092915050565b611cd881611a3c565b82525050565b6000602082019050611cf36000830184611ccf565b92915050565b600080fd5b600080fd5b611d0c81611a3c565b8114611d1757600080fd5b50565b600081359050611d2981611d03565b92915050565b600060208284031215611d4557611d44611cf9565b5b6000611d5384828501611d1a565b91505092915050565b600061014083016000830151611d756000860182611a46565b506020830151611d886020860182611a87565b506040830151611d9b6040860182611a46565b506060830151611dae6060860182611a46565b5060808301518482036080860152611dc68282611af6565b91505060a083015184820360a0860152611de08282611af6565b91505060c0830151611df560c0860182611a46565b5060e0830151611e0860e0860182611a46565b50610100830151611e1d610100860182611a87565b50610120830151848203610120860152611e378282611af6565b9150508091505092915050565b60006020820190508181036000830152611e5e8184611d5c565b905092915050565b600080fd5b600080fd5b600080fd5b60008083601f840112611e8b57611e8a611e66565b5b8235905067ffffffffffffffff811115611ea857611ea7611e6b565b5b602083019150836001820283011115611ec457611ec3611e70565b5b9250929050565b60008060008060008060808789031215611ee857611ee7611cf9565b5b6000611ef689828a01611d1a565b9650506020611f0789828a01611d1a565b955050604087013567ffffffffffffffff811115611f2857611f27611cfe565b5b611f3489828a01611e75565b9450945050606087013567ffffffffffffffff811115611f5757611f56611cfe565b5b611f6389828a01611e75565b92509250509295509295509295565b611f7b81611a75565b82525050565b600082825260208201905092915050565b6000611f9d82611a96565b611fa78185611f81565b9350611fb7818560208601611ab2565b611fc081611ae5565b840191505092915050565b600061014082019050611fe1600083018d611ccf565b611fee602083018c611f72565b611ffb604083018b611ccf565b612008606083018a611ccf565b818103608083015261201a8189611f92565b905081810360a083015261202e8188611f92565b905061203d60c0830187611ccf565b61204a60e0830186611ccf565b612058610100830185611f72565b81810361012083015261206b8184611f92565b90509b9a5050505050505050505050565b61208581611a75565b811461209057600080fd5b50565b6000813590506120a28161207c565b92915050565b600080600080608085870312156120c2576120c1611cf9565b5b60006120d087828801611d1a565b94505060206120e187828801611d1a565b93505060406120f287828801611d1a565b925050606061210387828801612093565b91505092959194509250565b7f4e487b7100000000000000000000000000000000000000000000000000000000600052604160045260246000fd5b7f4e487b7100000000000000000000000000000000000000000000000000000000600052602260045260246000fd5b6000600282049050600182168061218557607f821691505b602082108114156121995761219861213e565b5b50919050565b7f4e487b7100000000000000000000000000000000000000000000000000000000600052603260045260246000fd5b7f4e487b7100000000000000000000000000000000000000000000000000000000600052601160045260246000fd5b600061220882611a3c565b91507fffffffffffffffffffffffffffffffffffffffffffffffffffffffffffffffff82141561223b5761223a6121ce565b5b600182019050919050565b600061225182611a3c565b915061225c83611a3c565b92508282101561226f5761226e6121ce565b5b828203905092915050565b600061228582611a3c565b91506000821415612299576122986121ce565b5b60018203905091905056fea264697066735822122067b9294fc5c29a0e0712bcb40ffa113228a05b8729607fc7bcd4531c2854642964736f6c634300080b0033",
  "immutableReferences": {},
  "source": "// SPDX-License-Identifier: MIT\npragma solidity >=0.4.22 <0.9.0;\n\ncontract Crossbnb {\n\n  struct Offer { \n    uint id;\n    address owner;\n    uint tokenId;\n    uint price;\n    string paymentToken;\n    string state;\n    uint256 occupiedOfferFrom;\n    uint256 occupiedOfferTo;\n    address occupiedOfferByUser;\n    string adressToSendTokens;\n  }\n\n  mapping (uint => Offer) public offers;\n  uint public offerCount = 0;\n\n\n  function createOffer(uint tokenId, uint price, string calldata paymentToken, string calldata adressToSendTokens) public {\n    require(tokenId > 0);\n    require(price > 0);\n    offers[offerCount] = Offer(offerCount, msg.sender, tokenId, price, paymentToken, \"created\", 0, 0, msg.sender, adressToSendTokens);\n    offerCount++;\n  }\n\n  function getOffer(uint id) public view returns(Offer memory) {\n    require(id < offerCount);\n    return offers[id];\n  }\n\n  function getAllOffers() public view returns(Offer[] memory) {\n    Offer[] memory offersIds = new Offer[](offerCount);\n    for (uint i = 0; i < offerCount; i++) {\n      Offer storage member = offers[i];\n      offersIds[i] = member;\n    }\n    return offersIds;\n  }\n\n  function getAllActiveOffers() public view returns(Offer[] memory) {\n    Offer[] memory offersIds = new Offer[](offerCount);\n    for (uint i = 0; i < offerCount; i++) {\n      Offer storage member = offers[i];\n      offersIds[i] = member;\n    }\n    return offersIds;\n  }\n\n  function deleteStruct(uint id) public {\n  Offer memory removeMe;\n\n  for (uint i = 0; i < offerCount; i++) {\n    if (i == id) {                               // if this is the struct we want to delete...\n      removeMe = offers[i];                    // save it to a variable\n      offers[i] = offers[offerCount - 1]; // overwrite it with the last struct\n      offers[offerCount - 1] = removeMe;   // overwrite the last struct with the struct we want to delete\n    }\n  }\n\n  delete offers[offerCount - 1]; // delete the last struct\n  offerCount--; // remove the last struct (which should be the one we want to delete)\n  }\n\n  function changeOfferToPaid(uint id) public {\n    require(id < offerCount);\n    offers[id].state = \"paid\";\n  }\n\n  function changeOfferToOccupied(uint id, uint256 occupiedOfferFrom, uint256 occupiedOfferTo, address occupiedOfferByUser) public {\n    require(id < offerCount);\n    offers[id].state = \"occupied\";\n    offers[id].occupiedOfferFrom = occupiedOfferFrom;\n    offers[id].occupiedOfferTo = occupiedOfferTo;\n    offers[id].occupiedOfferByUser = occupiedOfferByUser;\n  }\n\n}\n",
  "sourcePath": "/home/roman/Skola/Bakalarkos/crossbnb-smartContract/contracts/Crossbnb.sol",
  "compiler": {
    "name": "solc",
    "version": "0.8.11+commit.d7f03943.Emscripten.clang"
  },
  "schemaVersion": "3.4.5",
  "updatedAt": "2022-05-16T19:26:03.719Z",
  "networkType": "ethereum",
  "devdoc": {
    "kind": "dev",
    "methods": {},
    "version": 1
  },
  "userdoc": {
    "kind": "user",
    "methods": {},
    "version": 1
  }
}