{
  "contractName": "Crossbnb",
  "abi": [
    {
      "inputs": [],
      "name": "offerCount",
      "outputs": [
        {
          "internalType": "uint256",
          "name": "",
          "type": "uint256"
        }
      ],
      "stateMutability": "view",
      "type": "function",
      "constant": true
    },
    {
      "inputs": [
        {
          "internalType": "uint256",
          "name": "",
          "type": "uint256"
        }
      ],
      "name": "offers",
      "outputs": [
        {
          "internalType": "address",
          "name": "owner",
          "type": "address"
        },
        {
          "internalType": "uint256",
          "name": "tokenId",
          "type": "uint256"
        },
        {
          "internalType": "uint256",
          "name": "price",
          "type": "uint256"
        },
        {
          "internalType": "string",
          "name": "paymentToken",
          "type": "string"
        },
        {
          "internalType": "string",
          "name": "state",
          "type": "string"
        },
        {
          "internalType": "uint256",
          "name": "occupiedOfferFrom",
          "type": "uint256"
        },
        {
          "internalType": "uint256",
          "name": "occupiedOfferTo",
          "type": "uint256"
        },
        {
          "internalType": "address",
          "name": "occupiedOfferByUser",
          "type": "address"
        }
      ],
      "stateMutability": "view",
      "type": "function",
      "constant": true
    },
    {
      "inputs": [
        {
          "internalType": "uint256",
          "name": "tokenId",
          "type": "uint256"
        },
        {
          "internalType": "uint256",
          "name": "price",
          "type": "uint256"
        },
        {
          "internalType": "string",
          "name": "paymentToken",
          "type": "string"
        }
      ],
      "name": "createOffer",
      "outputs": [],
      "stateMutability": "nonpayable",
      "type": "function"
    },
    {
      "inputs": [
        {
          "internalType": "uint256",
          "name": "id",
          "type": "uint256"
        }
      ],
      "name": "getOffer",
      "outputs": [
        {
          "components": [
            {
              "internalType": "address",
              "name": "owner",
              "type": "address"
            },
            {
              "internalType": "uint256",
              "name": "tokenId",
              "type": "uint256"
            },
            {
              "internalType": "uint256",
              "name": "price",
              "type": "uint256"
            },
            {
              "internalType": "string",
              "name": "paymentToken",
              "type": "string"
            },
            {
              "internalType": "string",
              "name": "state",
              "type": "string"
            },
            {
              "internalType": "uint256",
              "name": "occupiedOfferFrom",
              "type": "uint256"
            },
            {
              "internalType": "uint256",
              "name": "occupiedOfferTo",
              "type": "uint256"
            },
            {
              "internalType": "address",
              "name": "occupiedOfferByUser",
              "type": "address"
            }
          ],
          "internalType": "struct Crossbnb.Offer",
          "name": "",
          "type": "tuple"
        }
      ],
      "stateMutability": "view",
      "type": "function",
      "constant": true
    },
    {
      "inputs": [],
      "name": "getAllOffers",
      "outputs": [
        {
          "components": [
            {
              "internalType": "address",
              "name": "owner",
              "type": "address"
            },
            {
              "internalType": "uint256",
              "name": "tokenId",
              "type": "uint256"
            },
            {
              "internalType": "uint256",
              "name": "price",
              "type": "uint256"
            },
            {
              "internalType": "string",
              "name": "paymentToken",
              "type": "string"
            },
            {
              "internalType": "string",
              "name": "state",
              "type": "string"
            },
            {
              "internalType": "uint256",
              "name": "occupiedOfferFrom",
              "type": "uint256"
            },
            {
              "internalType": "uint256",
              "name": "occupiedOfferTo",
              "type": "uint256"
            },
            {
              "internalType": "address",
              "name": "occupiedOfferByUser",
              "type": "address"
            }
          ],
          "internalType": "struct Crossbnb.Offer[]",
          "name": "",
          "type": "tuple[]"
        }
      ],
      "stateMutability": "view",
      "type": "function",
      "constant": true
    },
    {
      "inputs": [],
      "name": "getAllActiveOffers",
      "outputs": [
        {
          "components": [
            {
              "internalType": "address",
              "name": "owner",
              "type": "address"
            },
            {
              "internalType": "uint256",
              "name": "tokenId",
              "type": "uint256"
            },
            {
              "internalType": "uint256",
              "name": "price",
              "type": "uint256"
            },
            {
              "internalType": "string",
              "name": "paymentToken",
              "type": "string"
            },
            {
              "internalType": "string",
              "name": "state",
              "type": "string"
            },
            {
              "internalType": "uint256",
              "name": "occupiedOfferFrom",
              "type": "uint256"
            },
            {
              "internalType": "uint256",
              "name": "occupiedOfferTo",
              "type": "uint256"
            },
            {
              "internalType": "address",
              "name": "occupiedOfferByUser",
              "type": "address"
            }
          ],
          "internalType": "struct Crossbnb.Offer[]",
          "name": "",
          "type": "tuple[]"
        }
      ],
      "stateMutability": "view",
      "type": "function",
      "constant": true
    },
    {
      "inputs": [
        {
          "internalType": "uint256",
          "name": "id",
          "type": "uint256"
        }
      ],
      "name": "deleteStruct",
      "outputs": [],
      "stateMutability": "nonpayable",
      "type": "function"
    },
    {
      "inputs": [
        {
          "internalType": "uint256",
          "name": "id",
          "type": "uint256"
        }
      ],
      "name": "changeOfferToPaid",
      "outputs": [],
      "stateMutability": "nonpayable",
      "type": "function"
    }
  ],
  "bytecode": "0x6080604052600060015534801561001557600080fd5b50611c6f806100256000396000f3fe608060405234801561001057600080fd5b50600436106100875760003560e01c80635aeee8cb1161005b5780635aeee8cb146101145780638a72ea6a146101305780638eea9c4914610167578063a16552781461018357610087565b80623beca01461008c5780631115c24d146100aa5780632a90acb2146100c85780634579268a146100e4575b600080fd5b6100946101a1565b6040516100a1919061175e565b60405180910390f35b6100b261045f565b6040516100bf919061178f565b60405180910390f35b6100e260048036038101906100dd91906117e0565b610465565b005b6100fe60048036038101906100f991906117e0565b6104d5565b60405161010b91906118c4565b60405180910390f35b61012e6004803603810190610129919061194b565b610708565b005b61014a600480360381019061014591906117e0565b610928565b60405161015e989796959493929190611a18565b60405180910390f35b610181600480360381019061017c91906117e0565b610ac0565b005b61018b611053565b604051610198919061175e565b60405180910390f35b6060600060015467ffffffffffffffff8111156101c1576101c0611aa4565b5b6040519080825280602002602001820160405280156101fa57816020015b6101e7611311565b8152602001906001900390816101df5790505b50905060005b600154811015610457576000806000838152602001908152602001600020905080604051806101000160405290816000820160009054906101000a900473ffffffffffffffffffffffffffffffffffffffff1673ffffffffffffffffffffffffffffffffffffffff1673ffffffffffffffffffffffffffffffffffffffff16815260200160018201548152602001600282015481526020016003820180546102a790611b02565b80601f01602080910402602001604051908101604052809291908181526020018280546102d390611b02565b80156103205780601f106102f557610100808354040283529160200191610320565b820191906000526020600020905b81548152906001019060200180831161030357829003601f168201915b5050505050815260200160048201805461033990611b02565b80601f016020809104026020016040519081016040528092919081815260200182805461036590611b02565b80156103b25780601f10610387576101008083540402835291602001916103b2565b820191906000526020600020905b81548152906001019060200180831161039557829003601f168201915b5050505050815260200160058201548152602001600682015481526020016007820160009054906101000a900473ffffffffffffffffffffffffffffffffffffffff1673ffffffffffffffffffffffffffffffffffffffff1673ffffffffffffffffffffffffffffffffffffffff168152505083838151811061043857610437611b34565b5b602002602001018190525050808061044f90611b92565b915050610200565b508091505090565b60015481565b600154811061047357600080fd5b6040518060400160405280600481526020017f706169640000000000000000000000000000000000000000000000000000000081525060008083815260200190815260200160002060040190805190602001906104d1929190611382565b5050565b6104dd611311565b60015482106104eb57600080fd5b600080838152602001908152602001600020604051806101000160405290816000820160009054906101000a900473ffffffffffffffffffffffffffffffffffffffff1673ffffffffffffffffffffffffffffffffffffffff1673ffffffffffffffffffffffffffffffffffffffff168152602001600182015481526020016002820154815260200160038201805461058390611b02565b80601f01602080910402602001604051908101604052809291908181526020018280546105af90611b02565b80156105fc5780601f106105d1576101008083540402835291602001916105fc565b820191906000526020600020905b8154815290600101906020018083116105df57829003601f168201915b5050505050815260200160048201805461061590611b02565b80601f016020809104026020016040519081016040528092919081815260200182805461064190611b02565b801561068e5780601f106106635761010080835404028352916020019161068e565b820191906000526020600020905b81548152906001019060200180831161067157829003601f168201915b5050505050815260200160058201548152602001600682015481526020016007820160009054906101000a900473ffffffffffffffffffffffffffffffffffffffff1673ffffffffffffffffffffffffffffffffffffffff1673ffffffffffffffffffffffffffffffffffffffff16815250509050919050565b6000841161071557600080fd5b6000831161072257600080fd5b6040518061010001604052803373ffffffffffffffffffffffffffffffffffffffff16815260200185815260200184815260200183838080601f016020809104026020016040519081016040528093929190818152602001838380828437600081840152601f19601f8201169050808301925050505050505081526020016040518060400160405280600781526020017f6372656174656400000000000000000000000000000000000000000000000000815250815260200160008152602001600081526020013373ffffffffffffffffffffffffffffffffffffffff16815250600080600154815260200190815260200160002060008201518160000160006101000a81548173ffffffffffffffffffffffffffffffffffffffff021916908373ffffffffffffffffffffffffffffffffffffffff1602179055506020820151816001015560408201518160020155606082015181600301908051906020019061088e929190611382565b5060808201518160040190805190602001906108ab929190611382565b5060a0820151816005015560c0820151816006015560e08201518160070160006101000a81548173ffffffffffffffffffffffffffffffffffffffff021916908373ffffffffffffffffffffffffffffffffffffffff1602179055509050506001600081548092919061091d90611b92565b919050555050505050565b60006020528060005260406000206000915090508060000160009054906101000a900473ffffffffffffffffffffffffffffffffffffffff169080600101549080600201549080600301805461097d90611b02565b80601f01602080910402602001604051908101604052809291908181526020018280546109a990611b02565b80156109f65780601f106109cb576101008083540402835291602001916109f6565b820191906000526020600020905b8154815290600101906020018083116109d957829003601f168201915b505050505090806004018054610a0b90611b02565b80601f0160208091040260200160405190810160405280929190818152602001828054610a3790611b02565b8015610a845780601f10610a5957610100808354040283529160200191610a84565b820191906000526020600020905b815481529060010190602001808311610a6757829003601f168201915b5050505050908060050154908060060154908060070160009054906101000a900473ffffffffffffffffffffffffffffffffffffffff16905088565b610ac8611311565b60005b600154811015610f865782811415610f7357600080828152602001908152602001600020604051806101000160405290816000820160009054906101000a900473ffffffffffffffffffffffffffffffffffffffff1673ffffffffffffffffffffffffffffffffffffffff1673ffffffffffffffffffffffffffffffffffffffff1681526020016001820154815260200160028201548152602001600382018054610b7590611b02565b80601f0160208091040260200160405190810160405280929190818152602001828054610ba190611b02565b8015610bee5780601f10610bc357610100808354040283529160200191610bee565b820191906000526020600020905b815481529060010190602001808311610bd157829003601f168201915b50505050508152602001600482018054610c0790611b02565b80601f0160208091040260200160405190810160405280929190818152602001828054610c3390611b02565b8015610c805780601f10610c5557610100808354040283529160200191610c80565b820191906000526020600020905b815481529060010190602001808311610c6357829003601f168201915b5050505050815260200160058201548152602001600682015481526020016007820160009054906101000a900473ffffffffffffffffffffffffffffffffffffffff1673ffffffffffffffffffffffffffffffffffffffff1673ffffffffffffffffffffffffffffffffffffffff1681525050915060008060018054610d069190611bdb565b81526020019081526020016000206000808381526020019081526020016000206000820160009054906101000a900473ffffffffffffffffffffffffffffffffffffffff168160000160006101000a81548173ffffffffffffffffffffffffffffffffffffffff021916908373ffffffffffffffffffffffffffffffffffffffff16021790555060018201548160010155600282015481600201556003820181600301908054610db590611b02565b610dc0929190611408565b506004820181600401908054610dd590611b02565b610de0929190611408565b5060058201548160050155600682015481600601556007820160009054906101000a900473ffffffffffffffffffffffffffffffffffffffff168160070160006101000a81548173ffffffffffffffffffffffffffffffffffffffff021916908373ffffffffffffffffffffffffffffffffffffffff1602179055509050508160008060018054610e719190611bdb565b815260200190815260200160002060008201518160000160006101000a81548173ffffffffffffffffffffffffffffffffffffffff021916908373ffffffffffffffffffffffffffffffffffffffff16021790555060208201518160010155604082015181600201556060820151816003019080519060200190610ef6929190611382565b506080820151816004019080519060200190610f13929190611382565b5060a0820151816005015560c0820151816006015560e08201518160070160006101000a81548173ffffffffffffffffffffffffffffffffffffffff021916908373ffffffffffffffffffffffffffffffffffffffff1602179055509050505b8080610f7e90611b92565b915050610acb565b5060008060018054610f989190611bdb565b8152602001908152602001600020600080820160006101000a81549073ffffffffffffffffffffffffffffffffffffffff021916905560018201600090556002820160009055600382016000610fee9190611495565b600482016000610ffe9190611495565b600582016000905560068201600090556007820160006101000a81549073ffffffffffffffffffffffffffffffffffffffff021916905550506001600081548092919061104a90611c0f565b91905055505050565b6060600060015467ffffffffffffffff81111561107357611072611aa4565b5b6040519080825280602002602001820160405280156110ac57816020015b611099611311565b8152602001906001900390816110915790505b50905060005b600154811015611309576000806000838152602001908152602001600020905080604051806101000160405290816000820160009054906101000a900473ffffffffffffffffffffffffffffffffffffffff1673ffffffffffffffffffffffffffffffffffffffff1673ffffffffffffffffffffffffffffffffffffffff168152602001600182015481526020016002820154815260200160038201805461115990611b02565b80601f016020809104026020016040519081016040528092919081815260200182805461118590611b02565b80156111d25780601f106111a7576101008083540402835291602001916111d2565b820191906000526020600020905b8154815290600101906020018083116111b557829003601f168201915b505050505081526020016004820180546111eb90611b02565b80601f016020809104026020016040519081016040528092919081815260200182805461121790611b02565b80156112645780601f1061123957610100808354040283529160200191611264565b820191906000526020600020905b81548152906001019060200180831161124757829003601f168201915b5050505050815260200160058201548152602001600682015481526020016007820160009054906101000a900473ffffffffffffffffffffffffffffffffffffffff1673ffffffffffffffffffffffffffffffffffffffff1673ffffffffffffffffffffffffffffffffffffffff16815250508383815181106112ea576112e9611b34565b5b602002602001018190525050808061130190611b92565b9150506110b2565b508091505090565b604051806101000160405280600073ffffffffffffffffffffffffffffffffffffffff168152602001600081526020016000815260200160608152602001606081526020016000815260200160008152602001600073ffffffffffffffffffffffffffffffffffffffff1681525090565b82805461138e90611b02565b90600052602060002090601f0160209004810192826113b057600085556113f7565b82601f106113c957805160ff19168380011785556113f7565b828001600101855582156113f7579182015b828111156113f65782518255916020019190600101906113db565b5b50905061140491906114d5565b5090565b82805461141490611b02565b90600052602060002090601f0160209004810192826114365760008555611484565b82601f106114475780548555611484565b8280016001018555821561148457600052602060002091601f016020900482015b82811115611483578254825591600101919060010190611468565b5b50905061149191906114d5565b5090565b5080546114a190611b02565b6000825580601f106114b357506114d2565b601f0160209004906000526020600020908101906114d191906114d5565b5b50565b5b808211156114ee5760008160009055506001016114d6565b5090565b600081519050919050565b600082825260208201905092915050565b6000819050602082019050919050565b600073ffffffffffffffffffffffffffffffffffffffff82169050919050565b60006115498261151e565b9050919050565b6115598161153e565b82525050565b6000819050919050565b6115728161155f565b82525050565b600081519050919050565b600082825260208201905092915050565b60005b838110156115b2578082015181840152602081019050611597565b838111156115c1576000848401525b50505050565b6000601f19601f8301169050919050565b60006115e382611578565b6115ed8185611583565b93506115fd818560208601611594565b611606816115c7565b840191505092915050565b60006101008301600083015161162a6000860182611550565b50602083015161163d6020860182611569565b5060408301516116506040860182611569565b506060830151848203606086015261166882826115d8565b9150506080830151848203608086015261168282826115d8565b91505060a083015161169760a0860182611569565b5060c08301516116aa60c0860182611569565b5060e08301516116bd60e0860182611550565b508091505092915050565b60006116d48383611611565b905092915050565b6000602082019050919050565b60006116f4826114f2565b6116fe81856114fd565b9350836020820285016117108561150e565b8060005b8581101561174c578484038952815161172d85826116c8565b9450611738836116dc565b925060208a01995050600181019050611714565b50829750879550505050505092915050565b6000602082019050818103600083015261177881846116e9565b905092915050565b6117898161155f565b82525050565b60006020820190506117a46000830184611780565b92915050565b600080fd5b600080fd5b6117bd8161155f565b81146117c857600080fd5b50565b6000813590506117da816117b4565b92915050565b6000602082840312156117f6576117f56117aa565b5b6000611804848285016117cb565b91505092915050565b6000610100830160008301516118266000860182611550565b5060208301516118396020860182611569565b50604083015161184c6040860182611569565b506060830151848203606086015261186482826115d8565b9150506080830151848203608086015261187e82826115d8565b91505060a083015161189360a0860182611569565b5060c08301516118a660c0860182611569565b5060e08301516118b960e0860182611550565b508091505092915050565b600060208201905081810360008301526118de818461180d565b905092915050565b600080fd5b600080fd5b600080fd5b60008083601f84011261190b5761190a6118e6565b5b8235905067ffffffffffffffff811115611928576119276118eb565b5b602083019150836001820283011115611944576119436118f0565b5b9250929050565b60008060008060608587031215611965576119646117aa565b5b6000611973878288016117cb565b9450506020611984878288016117cb565b935050604085013567ffffffffffffffff8111156119a5576119a46117af565b5b6119b1878288016118f5565b925092505092959194509250565b6119c88161153e565b82525050565b600082825260208201905092915050565b60006119ea82611578565b6119f481856119ce565b9350611a04818560208601611594565b611a0d816115c7565b840191505092915050565b600061010082019050611a2e600083018b6119bf565b611a3b602083018a611780565b611a486040830189611780565b8181036060830152611a5a81886119df565b90508181036080830152611a6e81876119df565b9050611a7d60a0830186611780565b611a8a60c0830185611780565b611a9760e08301846119bf565b9998505050505050505050565b7f4e487b7100000000000000000000000000000000000000000000000000000000600052604160045260246000fd5b7f4e487b7100000000000000000000000000000000000000000000000000000000600052602260045260246000fd5b60006002820490506001821680611b1a57607f821691505b60208210811415611b2e57611b2d611ad3565b5b50919050565b7f4e487b7100000000000000000000000000000000000000000000000000000000600052603260045260246000fd5b7f4e487b7100000000000000000000000000000000000000000000000000000000600052601160045260246000fd5b6000611b9d8261155f565b91507fffffffffffffffffffffffffffffffffffffffffffffffffffffffffffffffff821415611bd057611bcf611b63565b5b600182019050919050565b6000611be68261155f565b9150611bf18361155f565b925082821015611c0457611c03611b63565b5b828203905092915050565b6000611c1a8261155f565b91506000821415611c2e57611c2d611b63565b5b60018203905091905056fea2646970667358221220f30ec7c3aab6a3f42344d7b72b8ca4d6b35de467066901b3e9f79fd78b9712cf64736f6c634300080b0033",
  "immutableReferences": {},
  "source": "// SPDX-License-Identifier: MIT\npragma solidity >=0.4.22 <0.9.0;\n\ncontract Crossbnb {\n\n  struct Offer { \n    // uint id;\n    address owner;\n    uint tokenId;\n    uint price;\n    string paymentToken;\n    string state;\n    uint256 occupiedOfferFrom;\n    uint256 occupiedOfferTo;\n    address occupiedOfferByUser;\n  }\n\n  mapping (uint => Offer) public offers;\n  uint public offerCount = 0;\n\n\n  function createOffer(uint tokenId, uint price, string calldata paymentToken) public {\n    require(tokenId > 0);\n    require(price > 0);\n    offers[offerCount] = Offer(msg.sender, tokenId, price, paymentToken, \"created\", 0, 0, msg.sender);\n    offerCount++;\n  }\n\n  function getOffer(uint id) public view returns(Offer memory) {\n    require(id < offerCount);\n    return offers[id];\n  }\n\n  function getAllOffers() public view returns(Offer[] memory) {\n    Offer[] memory offersIds = new Offer[](offerCount);\n    for (uint i = 0; i < offerCount; i++) {\n      Offer storage member = offers[i];\n      offersIds[i] = member;\n    }\n    return offersIds;\n  }\n\n  function getAllActiveOffers() public view returns(Offer[] memory) {\n    Offer[] memory offersIds = new Offer[](offerCount);\n    for (uint i = 0; i < offerCount; i++) {\n      Offer storage member = offers[i];\n      offersIds[i] = member;\n    }\n    return offersIds;\n  }\n\n  function deleteStruct(uint id) public {\n  Offer memory removeMe;\n\n  for (uint i = 0; i < offerCount; i++) {\n    if (i == id) {                               // if this is the struct we want to delete...\n      removeMe = offers[i];                    // save it to a variable\n      offers[i] = offers[offerCount - 1]; // overwrite it with the last struct\n      offers[offerCount - 1] = removeMe;   // overwrite the last struct with the struct we want to delete\n    }\n  }\n\n  delete offers[offerCount - 1]; // delete the last struct\n  offerCount--; // remove the last struct (which should be the one we want to delete)\n  }\n\n  function changeOfferToPaid(uint id) public {\n    require(id < offerCount);\n    offers[id].state = \"paid\";\n  }\n\n}\n",
  "sourcePath": "/home/roman/Skola/Bakalarkos/crossbnb-smartContract/contracts/Crossbnb.sol",
  "compiler": {
    "name": "solc",
    "version": "0.8.11+commit.d7f03943.Emscripten.clang"
  },
  "schemaVersion": "3.4.5",
  "updatedAt": "2022-05-16T17:58:32.453Z",
  "networkType": "ethereum",
  "devdoc": {
    "kind": "dev",
    "methods": {},
    "version": 1
  },
  "userdoc": {
    "kind": "user",
    "methods": {},
    "version": 1
  }
}